{
  "transactions": [
    {
      "hash": "0xff07f6f4a1f01159a1eccd85ebcae02e489c4e5666d67f7b93a01b42baf1f639",
      "transactionType": "CALL",
      "contractName": null,
      "contractAddress": "0xb92257d74b8815ec711071889cb506c8d66a6a06",
      "function": "transfer(address,uint256)",
      "arguments": [
        "0x04dfB907193F0daC9fe1811402C79b9f11e9cBB8",
        "1000000000000000000000"
      ],
      "transaction": {
        "from": "0xf39fd6e51aad88f6f4ce6ab8827279cfffb92266",
        "to": "0xb92257d74b8815ec711071889cb506c8d66a6a06",
        "gas": "0x126ee",
        "value": "0x0",
        "input": "0xa9059cbb00000000000000000000000004dfb907193f0dac9fe1811402c79b9f11e9cbb800000000000000000000000000000000000000000000003635c9adc5dea00000",
        "nonce": "0x343",
        "chainId": "0x1"
      },
      "additionalContracts": [],
      "isFixedGasLimit": false
    }
  ],
  "receipts": [
    {
      "status": "0x1",
      "cumulativeGasUsed": "0xc9aa",
      "logs": [
        {
          "address": "0xb92257d74b8815ec711071889cb506c8d66a6a06",
          "topics": [
            "0xddf252ad1be2c89b69c2b068fc378daa952ba7f163c4a11628f55a4df523b3ef",
            "0x000000000000000000000000f39fd6e51aad88f6f4ce6ab8827279cfffb92266",
            "0x00000000000000000000000004dfb907193f0dac9fe1811402c79b9f11e9cbb8"
          ],
          "data": "0x00000000000000000000000000000000000000000000003635c9adc5dea00000",
          "blockHash": "0xfe9d72f3b1cac324bc8f67c1609dfa7623e165dd5d96c23bb7c9d74dba6e0da0",
          "blockNumber": "0x147fd60",
          "blockTimestamp": "0x676edd81",
          "transactionHash": "0xff07f6f4a1f01159a1eccd85ebcae02e489c4e5666d67f7b93a01b42baf1f639",
          "transactionIndex": "0x0",
          "logIndex": "0x0",
          "removed": false
        }
      ],
      "logsBloom": "0x00000000000000000000000000000000000000000000000000000000000000000000000000000000000000000000000000000000000000000000000000000000400000000000000000000008000000000000000000000000000000000000000000000000000000000000000100000000000000000000000000000010000000000000000000000000000000000000000000000000200000000000000000000000000000000000000000000000000000000000000000004000000000000000000000010002000000200000000000000000000000002000000000000000000080800000000000000000000000000000000000000000000000000000000000000000",
      "type": "0x2",
      "transactionHash": "0xff07f6f4a1f01159a1eccd85ebcae02e489c4e5666d67f7b93a01b42baf1f639",
      "transactionIndex": "0x0",
      "blockHash": "0xfe9d72f3b1cac324bc8f67c1609dfa7623e165dd5d96c23bb7c9d74dba6e0da0",
      "blockNumber": "0x147fd60",
      "gasUsed": "0xc9aa",
      "effectiveGasPrice": "0x10fd4cf27",
      "blobGasPrice": "0x292003a3e",
      "from": "0xf39fd6e51aad88f6f4ce6ab8827279cfffb92266",
      "to": "0xb92257d74b8815ec711071889cb506c8d66a6a06",
      "contractAddress": null
    }
  ],
  "libraries": [],
  "pending": [],
  "returns": {},
  "timestamp": 1735318917,
  "chain": 1,
  "commit": "19b115f"
}