{
  "transactions": [
    {
      "hash": "0xa72b68c119c5a98167da86100339f7d4e272c1c8006f76becbd5c523e7256c12",
      "transactionType": "CALL",
      "contractName": null,
      "contractAddress": "0xf975a646fca589be9fc4e0c28ea426a75645fb1f",
      "function": "transfer(address,uint256)",
      "arguments": [
        "0xb0fCe41E765426Defc4ECB75822EFAca47f20F35",
        "1000000000000000000000"
      ],
      "transaction": {
        "from": "0xf39fd6e51aad88f6f4ce6ab8827279cfffb92266",
        "to": "0xf975a646fca589be9fc4e0c28ea426a75645fb1f",
        "gas": "0x126ee",
        "value": "0x0",
        "input": "0xa9059cbb000000000000000000000000b0fce41e765426defc4ecb75822efaca47f20f3500000000000000000000000000000000000000000000003635c9adc5dea00000",
        "nonce": "0x357",
        "chainId": "0x1"
      },
      "additionalContracts": [],
      "isFixedGasLimit": false
    }
  ],
  "receipts": [
    {
      "status": "0x1",
      "cumulativeGasUsed": "0xc9aa",
      "logs": [
        {
          "address": "0xf975a646fca589be9fc4e0c28ea426a75645fb1f",
          "topics": [
            "0xddf252ad1be2c89b69c2b068fc378daa952ba7f163c4a11628f55a4df523b3ef",
            "0x000000000000000000000000f39fd6e51aad88f6f4ce6ab8827279cfffb92266",
            "0x000000000000000000000000b0fce41e765426defc4ecb75822efaca47f20f35"
          ],
          "data": "0x00000000000000000000000000000000000000000000003635c9adc5dea00000",
          "blockHash": "0xd44f62719c1d84c6de23ad0056f6c0f5827d0d57ccb7f9eb7b23523ce43553e9",
          "blockNumber": "0x14b4222",
          "blockTimestamp": "0x67964c3f",
          "transactionHash": "0xa72b68c119c5a98167da86100339f7d4e272c1c8006f76becbd5c523e7256c12",
          "transactionIndex": "0x0",
          "logIndex": "0x0",
          "removed": false
        }
      ],
      "logsBloom": "0x00000000000000000000000000000000000000000000000000000000000000000000000001000000000000000000000000000200000000000000000080000000000000000000000000000008000000000000000000000000000000000000000000000000000000000000000100000000000000000000000000000010000000000000000000000000000000000000000000000000000000000000000000000002000000000000000000000000000000000000000000000000000000000000000000000002000200200000000000000000000000002000000000000000000000000000000000000000000000000000000000000000000000000000000000000000",
      "type": "0x2",
      "transactionHash": "0xa72b68c119c5a98167da86100339f7d4e272c1c8006f76becbd5c523e7256c12",
      "transactionIndex": "0x0",
      "blockHash": "0xd44f62719c1d84c6de23ad0056f6c0f5827d0d57ccb7f9eb7b23523ce43553e9",
      "blockNumber": "0x14b4222",
      "gasUsed": "0xc9aa",
      "effectiveGasPrice": "0x8bd7c588",
      "blobGasPrice": "0xc2d3d9e8",
      "from": "0xf39fd6e51aad88f6f4ce6ab8827279cfffb92266",
      "to": "0xf975a646fca589be9fc4e0c28ea426a75645fb1f",
      "contractAddress": null
    }
  ],
  "libraries": [],
  "pending": [],
  "returns": {},
  "timestamp": 1737903176,
  "chain": 1,
  "commit": "383179c"
}