{
  "transactions": [
    {
      "hash": "0x22ce266d6b72308c220941ae074a8f248fdff0de45b042eca22782ef1aee7dd1",
      "transactionType": "CALL",
      "contractName": null,
      "contractAddress": "0x88b9ad010a699cc0c8c5c5ea8baf90a0c375df1a",
      "function": "transfer(address,uint256)",
      "arguments": [
        "0x1B6aCB97F2AF41E5EbE39fdECC0bEc2D65334660",
        "1000000000000000000000"
      ],
      "transaction": {
        "from": "0xf39fd6e51aad88f6f4ce6ab8827279cfffb92266",
        "to": "0x88b9ad010a699cc0c8c5c5ea8baf90a0c375df1a",
        "gas": "0x126ee",
        "value": "0x0",
        "input": "0xa9059cbb0000000000000000000000001b6acb97f2af41e5ebe39fdecc0bec2d6533466000000000000000000000000000000000000000000000003635c9adc5dea00000",
        "nonce": "0x357",
        "chainId": "0x1"
      },
      "additionalContracts": [],
      "isFixedGasLimit": false
    }
  ],
  "receipts": [
    {
      "status": "0x1",
      "cumulativeGasUsed": "0xc9aa",
      "logs": [
        {
          "address": "0x88b9ad010a699cc0c8c5c5ea8baf90a0c375df1a",
          "topics": [
            "0xddf252ad1be2c89b69c2b068fc378daa952ba7f163c4a11628f55a4df523b3ef",
            "0x000000000000000000000000f39fd6e51aad88f6f4ce6ab8827279cfffb92266",
            "0x0000000000000000000000001b6acb97f2af41e5ebe39fdecc0bec2d65334660"
          ],
          "data": "0x00000000000000000000000000000000000000000000003635c9adc5dea00000",
          "blockHash": "0x1e0a8ddd3e2f9e94ac7accb39a161339b2c1c2784fdd7594d66e65b30b2ff940",
          "blockNumber": "0x14b283a",
          "blockTimestamp": "0x679519f2",
          "transactionHash": "0x22ce266d6b72308c220941ae074a8f248fdff0de45b042eca22782ef1aee7dd1",
          "transactionIndex": "0x0",
          "logIndex": "0x0",
          "removed": false
        }
      ],
      "logsBloom": "0x00000000000000000000000000020000000000000000000000000000000000000000000000000000000000000000000000000000000000000000000000000000000000000000000000000008000000000000000000000000000000000000000000000000000000100000000100000000000000000000000000000010000000000000000000000000000000000000000000000000000000000000000000000000000000000000000000000000040000000000000000000000000000000040000000000002000004200000000000000000000000002000000000000000000000000000000000000000000000010000000000000000000000000000000000000000",
      "type": "0x2",
      "transactionHash": "0x22ce266d6b72308c220941ae074a8f248fdff0de45b042eca22782ef1aee7dd1",
      "transactionIndex": "0x0",
      "blockHash": "0x1e0a8ddd3e2f9e94ac7accb39a161339b2c1c2784fdd7594d66e65b30b2ff940",
      "blockNumber": "0x14b283a",
      "gasUsed": "0xc9aa",
      "effectiveGasPrice": "0x160360a76",
      "blobGasPrice": "0x32842ea",
      "from": "0xf39fd6e51aad88f6f4ce6ab8827279cfffb92266",
      "to": "0x88b9ad010a699cc0c8c5c5ea8baf90a0c375df1a",
      "contractAddress": null
    }
  ],
  "libraries": [],
  "pending": [],
  "returns": {},
  "timestamp": 1737824764,
  "chain": 1,
  "commit": "383179c"
}