{
  "transactions": [
    {
      "hash": "0x66a1e7dc0f44723fafda41f32ce136ad6171bc5e77ff117d127ebb0f85d9f43e",
      "transactionType": "CALL",
      "contractName": null,
      "contractAddress": "0xed8d7d3a98cb4ea6c91a80dcd2220719c264531f",
      "function": "transfer(address,uint256)",
      "arguments": [
        "0xC7BD562D9B9c4ECd82198E363DF43e1CD9856B75",
        "1000000000000000000000"
      ],
      "transaction": {
        "from": "0xf39fd6e51aad88f6f4ce6ab8827279cfffb92266",
        "to": "0xed8d7d3a98cb4ea6c91a80dcd2220719c264531f",
        "gas": "0x126ee",
        "value": "0x0",
        "input": "0xa9059cbb000000000000000000000000c7bd562d9b9c4ecd82198e363df43e1cd9856b7500000000000000000000000000000000000000000000003635c9adc5dea00000",
        "nonce": "0x350",
        "chainId": "0x1"
      },
      "additionalContracts": [],
      "isFixedGasLimit": false
    }
  ],
  "receipts": [
    {
      "status": "0x1",
      "cumulativeGasUsed": "0xc9aa",
      "logs": [
        {
          "address": "0xed8d7d3a98cb4ea6c91a80dcd2220719c264531f",
          "topics": [
            "0xddf252ad1be2c89b69c2b068fc378daa952ba7f163c4a11628f55a4df523b3ef",
            "0x000000000000000000000000f39fd6e51aad88f6f4ce6ab8827279cfffb92266",
            "0x000000000000000000000000c7bd562d9b9c4ecd82198e363df43e1cd9856b75"
          ],
          "data": "0x00000000000000000000000000000000000000000000003635c9adc5dea00000",
          "blockHash": "0x9887bb563654bf3f7c2f9ff0cb965e522a47a377b263c0d0f7983b9631414948",
          "blockNumber": "0x1497ea7",
          "blockTimestamp": "0x678111ad",
          "transactionHash": "0x66a1e7dc0f44723fafda41f32ce136ad6171bc5e77ff117d127ebb0f85d9f43e",
          "transactionIndex": "0x0",
          "logIndex": "0x0",
          "removed": false
        }
      ],
      "logsBloom": "0x00000000000000000000000000000000000000000000000000000000000000000000000000000000000000000000000000000000000000000000400000000000000000000000000000000008000000000000000002000000000000000000080000000000000000000000000100000000000000000000000000100010000000000000000000000000000000000000000000000000800000000000000000000000000000000000000000000000000000000000000000000000000000000000000000000002000000200000000000000000000000002000000000000000000000000000000000000000000000000000000000000000000000000000000000080000",
      "type": "0x2",
      "transactionHash": "0x66a1e7dc0f44723fafda41f32ce136ad6171bc5e77ff117d127ebb0f85d9f43e",
      "transactionIndex": "0x0",
      "blockHash": "0x9887bb563654bf3f7c2f9ff0cb965e522a47a377b263c0d0f7983b9631414948",
      "blockNumber": "0x1497ea7",
      "gasUsed": "0xc9aa",
      "effectiveGasPrice": "0x8bd7321b",
      "blobGasPrice": "0x8c33acc",
      "from": "0xf39fd6e51aad88f6f4ce6ab8827279cfffb92266",
      "to": "0xed8d7d3a98cb4ea6c91a80dcd2220719c264531f",
      "contractAddress": null
    }
  ],
  "libraries": [],
  "pending": [],
  "returns": {},
  "timestamp": 1736511926,
  "chain": 1,
  "commit": "19b115f"
}