{
  "transactions": [
    {
      "hash": "0x115f053070be573e2d38f9917addfedea0286606d7c554c9ad34b0f02da03a39",
      "transactionType": "CALL",
      "contractName": null,
      "contractAddress": "0x2ca60d89144d4cdf85da87af4fe12abf9265f28c",
      "function": "transfer(address,uint256)",
      "arguments": [
        "0x3A3B8F4cD8712EE567Dd56AB58C6CAb0838881d8",
        "1000000000000000000000"
      ],
      "transaction": {
        "from": "0xf39fd6e51aad88f6f4ce6ab8827279cfffb92266",
        "to": "0x2ca60d89144d4cdf85da87af4fe12abf9265f28c",
        "gas": "0x126ee",
        "value": "0x0",
        "input": "0xa9059cbb0000000000000000000000003a3b8f4cd8712ee567dd56ab58c6cab0838881d800000000000000000000000000000000000000000000003635c9adc5dea00000",
        "nonce": "0x359",
        "chainId": "0x1"
      },
      "additionalContracts": [],
      "isFixedGasLimit": false
    }
  ],
  "receipts": [
    {
      "status": "0x1",
      "cumulativeGasUsed": "0xc9aa",
      "logs": [
        {
          "address": "0x2ca60d89144d4cdf85da87af4fe12abf9265f28c",
          "topics": [
            "0xddf252ad1be2c89b69c2b068fc378daa952ba7f163c4a11628f55a4df523b3ef",
            "0x000000000000000000000000f39fd6e51aad88f6f4ce6ab8827279cfffb92266",
            "0x0000000000000000000000003a3b8f4cd8712ee567dd56ab58c6cab0838881d8"
          ],
          "data": "0x00000000000000000000000000000000000000000000003635c9adc5dea00000",
          "blockHash": "0x3522e120e7ca244514ef93619db90d3b4d1ede3daca2cb64bb5cedb54312294e",
          "blockNumber": "0x149d1e5",
          "blockTimestamp": "0x6784f331",
          "transactionHash": "0x115f053070be573e2d38f9917addfedea0286606d7c554c9ad34b0f02da03a39",
          "transactionIndex": "0x0",
          "logIndex": "0x0",
          "removed": false
        }
      ],
      "logsBloom": "0x00000000000000000000000000000000000000000000000000000000000000000000000000000000000000000000000000000000100000000000000000000000000000000000000000000008000000000000000000000000000000000000000000000000000000000000000100000000000000000000000000000010000000000000000100010000000000000000000000000000000000000000000000000000000000000000000000000000000000040000000000000000000000000000000000000002000000200000000000000000000000002000000000000000000000000000000000000000000000000000000000000000000000000002000000020000",
      "type": "0x2",
      "transactionHash": "0x115f053070be573e2d38f9917addfedea0286606d7c554c9ad34b0f02da03a39",
      "transactionIndex": "0x0",
      "blockHash": "0x3522e120e7ca244514ef93619db90d3b4d1ede3daca2cb64bb5cedb54312294e",
      "blockNumber": "0x149d1e5",
      "gasUsed": "0xc9aa",
      "effectiveGasPrice": "0x1252a19fd",
      "blobGasPrice": "0x8e500c22",
      "from": "0xf39fd6e51aad88f6f4ce6ab8827279cfffb92266",
      "to": "0x2ca60d89144d4cdf85da87af4fe12abf9265f28c",
      "contractAddress": null
    }
  ],
  "libraries": [],
  "pending": [],
  "returns": {},
  "timestamp": 1736766261,
  "chain": 1,
  "commit": "19b115f"
}