{
  "transactions": [
    {
      "hash": "0x042dbf67604a29878a914d34cf8783e6a9f28c8e43cab155492ce7b2aff4ba51",
      "transactionType": "CALL",
      "contractName": null,
      "contractAddress": "0x2ca60d89144d4cdf85da87af4fe12abf9265f28c",
      "function": "transfer(address,uint256)",
      "arguments": [
        "0x3A3B8F4cD8712EE567Dd56AB58C6CAb0838881d8",
        "1000000000000000000000"
      ],
      "transaction": {
        "from": "0xf39fd6e51aad88f6f4ce6ab8827279cfffb92266",
        "to": "0x2ca60d89144d4cdf85da87af4fe12abf9265f28c",
        "gas": "0xba47",
        "value": "0x0",
        "input": "0xa9059cbb0000000000000000000000003a3b8f4cd8712ee567dd56ab58c6cab0838881d800000000000000000000000000000000000000000000003635c9adc5dea00000",
        "nonce": "0x35c",
        "chainId": "0x1"
      },
      "additionalContracts": [],
      "isFixedGasLimit": false
    }
  ],
  "receipts": [
    {
      "status": "0x1",
      "cumulativeGasUsed": "0x86de",
      "logs": [
        {
          "address": "0x2ca60d89144d4cdf85da87af4fe12abf9265f28c",
          "topics": [
            "0xddf252ad1be2c89b69c2b068fc378daa952ba7f163c4a11628f55a4df523b3ef",
            "0x000000000000000000000000f39fd6e51aad88f6f4ce6ab8827279cfffb92266",
            "0x0000000000000000000000003a3b8f4cd8712ee567dd56ab58c6cab0838881d8"
          ],
          "data": "0x00000000000000000000000000000000000000000000003635c9adc5dea00000",
          "blockHash": "0x9362f4d20c4547db651c7f78c01a9f6d8f84f53a8f59e888693b3262343d608b",
          "blockNumber": "0x149d1e8",
          "blockTimestamp": "0x6784f676",
          "transactionHash": "0x042dbf67604a29878a914d34cf8783e6a9f28c8e43cab155492ce7b2aff4ba51",
          "transactionIndex": "0x0",
          "logIndex": "0x0",
          "removed": false
        }
      ],
      "logsBloom": "0x00000000000000000000000000000000000000000000000000000000000000000000000000000000000000000000000000000000100000000000000000000000000000000000000000000008000000000000000000000000000000000000000000000000000000000000000100000000000000000000000000000010000000000000000100010000000000000000000000000000000000000000000000000000000000000000000000000000000000040000000000000000000000000000000000000002000000200000000000000000000000002000000000000000000000000000000000000000000000000000000000000000000000000002000000020000",
      "type": "0x2",
      "transactionHash": "0x042dbf67604a29878a914d34cf8783e6a9f28c8e43cab155492ce7b2aff4ba51",
      "transactionIndex": "0x0",
      "blockHash": "0x9362f4d20c4547db651c7f78c01a9f6d8f84f53a8f59e888693b3262343d608b",
      "blockNumber": "0x149d1e8",
      "gasUsed": "0x86de",
      "effectiveGasPrice": "0xffbbfb19",
      "blobGasPrice": "0x63f363e9",
      "from": "0xf39fd6e51aad88f6f4ce6ab8827279cfffb92266",
      "to": "0x2ca60d89144d4cdf85da87af4fe12abf9265f28c",
      "contractAddress": null
    }
  ],
  "libraries": [],
  "pending": [],
  "returns": {},
  "timestamp": 1736767098,
  "chain": 1,
  "commit": "19b115f"
}